:020000040000FA
:100000000C949D000C94BA000C94BA000C94BA00A5
:100010000C94BA000C94BA000C94BA000C94BA0078
:100020000C94BA000C94BA000C94BA000C94BA0068
:100030000C94BA000C94BA000C94BA000C94BA0058
:100040000C9404010C94BA000C94BA000C94BA00FD
:100050000C94BA000C94BA000C94BA000C94BA0038
:100060000C94BA000C94BA0007634236B79BD8A729
:100070001A39685618AEBAAB558C1D3CB7CC5763CD
:10008000BD6DEDFD753EF6177231BF000000803F7B
:1000900008000000BE922449123EABAAAA2ABECD97
:1000A000CCCC4C3E00000080BEABAAAAAA3E000009
:1000B0000000BF000000803F000000000008417801
:1000C000D3BB4387D1133D190E3CC3BD4282AD2B38
:1000D0003E68EC8276BED98FE1A93E4C80EFFFBE30
:1000E00001C4FF7F3F00000000000000000024006A
:1000F00027002A0000000000250028002B0004042F
:1001000004040404040402020202020203030303BF
:10011000030301020408102040800102040810209B
:100120000102040810200000000800020100000382
:100130000407000000000000000011241FBECFEFE4
:10014000D8E0DEBFCDBF11E0A0E0B1E0E2EDFBE022
:1001500002C005900D92A83CB107D9F721E0A8ECA8
:10016000B1E001C01D92A13DB207E1F70E944E012E
:100170000C94E7050C940000EEE2F1E02491EAE132
:10018000F1E09491E6E0F1E0E491EE23C9F022235E
:1001900039F0233001F1A8F4213019F1223029F18E
:1001A000F0E0EE0FFF1FEC50FF4FA591B4912FB779
:1001B000F894EC91811126C090959E239C932FBFBB
:1001C00008952730A9F02830C9F0243049F720914C
:1001D00080002F7D03C0209180002F772093800026
:1001E000DFCF24B52F7724BDDBCF24B52F7DFBCF08
:1001F0002091B0002F772093B000D2CF2091B00093
:100200002F7DF9CF9E2BDACF1F920F920FB60F9250
:1002100011242F933F938F939F93AF93BF9380911C
:10022000CD019091CE01A091CF01B091D00130913C
:10023000CC0123E0230F2D3758F50196A11DB11DE8
:100240002093CC018093CD019093CE01A093CF0158
:10025000B093D0018091C8019091C901A091CA01C9
:10026000B091CB010196A11DB11D8093C80190935F
:10027000C901A093CA01B093CB01BF91AF919F91E7
:100280008F913F912F910F900FBE0F901F90189557
:1002900026E8230F0296A11DB11DD2CF789484B514
:1002A000826084BD84B5816084BD85B5826085BD72
:1002B00085B5816085BD80916E00816080936E0000
:1002C00010928100809181008260809381008091F2
:1002D00081008160809381008091800081608093A3
:1002E00080008091B10084608093B1008091B00063
:1002F00081608093B00080917A00846080937A005E
:1003000080917A00826080937A0080917A00816087
:1003100080937A0080917A00806880937A001092AE
:10032000C100EAE1F1E02491E6E0F1E08491882364
:1003300099F090E0880F991FFC01E651FF4FA591BD
:10034000B491FC01EC50FF4F859194918FB7F894D4
:10035000EC91E22BEC938FBF28EC622E21E0722E01
:1003600030E0832E30E0932E00E011E0D801EC91D4
:100370000E5F1F4FE154C12CD12C7601E73060F5A0
:100380000E2E000CFF0BE953FE4F0C94E1053802D2
:100390003B02CE013E022F023202350270E060E0E5
:1003A000072E000C880B990B0E94F60220E030E02B
:1003B00040E451E40E944C029B01AC0160E070E01B
:1003C00080E090E40E94EF0320E030E04CED53E445
:1003D0000E9482036B017C0120E030E04AEF53E48D
:1003E000C701B6010E94820320E030E04AE754E4EE
:1003F0000E944C020E94BE025B01A701960160E0D0
:1004000074E284E799E40E944C020E94BE02EB0170
:1004100077FD2196D595C7957E01EE0CFF1CEE0C5D
:10042000FF1CB5E0EB1AF108D12CC12CCA14DB0477
:1004300044F581E00E94BC00C230D10518F0C7012C
:100440000197F1F780E00E94BC00C230D10518F09E
:10045000C7010197F1F78FEFC81AD80AE7CF64E018
:1004600070E09ECF65E070E09BCF67E070E098CFD2
:1004700069E070E095CF6BE070E092CF62E070E0F1
:100480008FCF6016710609F071CF8114910409F4C1
:100490006BCF0E94000068CF0E9460020C9448035A
:1004A0000E94410358F00E943A0340F029F45F3F54
:1004B00029F00C94310351110C947C030C943703F4
:1004C0000E94590368F39923B1F3552391F3951BC7
:1004D000550BBB27AA2762177307840738F09F5F65
:1004E0005F4F220F331F441FAA1FA9F335D00E2ED2
:1004F0003AF0E0E832D091505040E695001CCAF73F
:100500002BD0FE2F29D0660F771F881FBB1F261701
:1005100037074807AB07B0E809F0BB0B802DBF01D8
:10052000FF2793585F4F3AF09E3F510578F00C94A7
:1005300031030C947C035F3FE4F3983ED4F386953B
:1005400077956795B795F7959F5FC9F7880F911DC8
:100550009695879597F90895E1E0660F771F881FB4
:10056000BB1F621773078407BA0720F0621B730B67
:10057000840BBA0BEE1F88F7E09508950E94C50220
:100580006894B1110C947C0308950E94610388F073
:100590009F5798F0B92F9927B751B0F0E1F0660F47
:1005A000771F881F991F1AF0BA95C9F714C0B13088
:1005B00091F00E947B03B1E008950C947B03672FB8
:1005C000782F8827B85F39F0B93FCCF386957795B7
:1005D0006795B395D9F73EF49095809570956195A0
:1005E0007F4F8F4F9F4F0895E89409C097FB3EF4CB
:1005F00090958095709561957F4F8F4F9F4F992370
:10060000A9F0F92F96E9BB279395F69587957795ED
:100610006795B795F111F8CFFAF4BB0F11F460FFAD
:100620001BC06F5F7F4F8F4F9F4F16C0882311F005
:1006300096E911C0772321F09EE8872F762F05C019
:10064000662371F096E8862F70E060E02AF09A95B4
:10065000660F771F881FDAF7880F9695879597F9A9
:10066000089597F99F6780E870E060E008959FEF34
:1006700080EC089500240A94161617061806090639
:10068000089500240A941216130614060506089508
:10069000092E0394000C11F4882352F0BB0F40F490
:1006A000BF2B11F460FF04C06F5F7F4F8F4F9F4FD0
:1006B000089557FD9058440F551F59F05F3F71F052
:1006C0004795880F97FB991F61F09F3F79F08795B9
:1006D0000895121613061406551FF2CF4695F1DF42
:1006E00008C0161617061806991FF1CF86957105D2
:1006F000610508940895E894BB2766277727CB0106
:1007000097F908950E9495030C9448030E943A03B8
:1007100038F00E94410320F0952311F00C9431032E
:100720000C94370311240C947C030E94590370F33A
:10073000959FC1F3950F50E0551F629FF001729F86
:10074000BB27F00DB11D639FAA27F00DB11DAA1F95
:10075000649F6627B00DA11D661F829F2227B00DE2
:10076000A11D621F739FB00DA11D621F839FA00D6D
:10077000611D221F749F3327A00D611D231F849FBD
:10078000600D211D822F762F6A2F11249F57504014
:100790009AF0F1F088234AF0EE0FFF1FBB1F661F8F
:1007A000771F881F91505040A9F79E3F510580F058
:1007B0000C9431030C947C035F3FE4F3983ED4F334
:1007C000869577956795B795F795E7959F5FC1F7FC
:1007D000FE2B880F911D9695879597F90895FA013C
:1007E000EE0FFF1F309621053105A1F1611571054E
:1007F00061F48038BFE39B0749F168949038810524
:1008000061F08038BFEF9B0741F099234AF5FF3F25
:10081000E1053105210519F1E8940894E795D9011E
:10082000AA2329F4AB2FBE2FF85FD0F310C0FF5FCF
:1008300070F4A695E0F7F73950F019F0FF3A38F464
:100840009F779F930DD00F9007FC9058089546F026
:100850000C94370360E070E080E89FE308954FE771
:100860009F775F934F933F932F930E94EA042F91BA
:100870003F914F915F910E9482030C94470429F4A9
:1008800016F00C9431030C947B030C9437030E94F4
:100890006103A8F39638A0F707F80F92E8942BE3CA
:1008A0003AEA48EB5FE70E9498030F920F920F928B
:1008B0004DB75EB70F920E943205E8E6F0E00E9465
:1008C00079044F915F91EF91FF91E595EE1FFF1F26
:1008D00049F0FE57E0684427EE0F441FFA95E1F710
:1008E0004195550B0E94AC040F9007FE0C94A00498
:1008F0000895DF93CF931F930F93FF92EF92DF92B0
:100900007B018C01689406C0DA2EEF010E949503EA
:10091000FE01E894A5912591359145915591A6F355
:10092000EF010E947E05FE019701A801DA9469F7A4
:10093000DF90EF90FF900F911F91CF91DF9108957D
:100940009B01AC0160E070E080E89FE30C944C02F6
:100950000C9431030C94D3050E946103D8F39923BE
:10096000C9F3940F511DA3F39150504094F059F0E6
:10097000882332F0660F771F881F91505040C1F7CF
:100980009E3F51052CF7880F911D9695879597F9F5
:1009900008955F3FACF0983E9CF0BB278695779515
:1009A0006795B79508F4B1609395C1F7BB0F58F7F9
:1009B00011F460FFE8CF6F5F7F4F8F4F9F4FE3CF02
:1009C0000C947C0316F00C94D3050C9437036894B4
:1009D0000C9431030E946103A8F39923C1F3AEF391
:1009E000DF93CF931F930F93FF92C92FDD278823A7
:1009F0002AF02197660F771F881FDAF720E030E092
:100A000040E85FEB9FE3883920F0803E38F0219684
:100A10008F770E946705E0E9F0E004C00E94670557
:100A2000EDEBF0E00E9479048B01BE01EC01FB2E9E
:100A30006F5771097595771F880B990B0E94F60205
:100A400028E132E741E35FE30E949503AF2D98016F
:100A5000AE01FF900F911F91CF91DF910E947E0513
:100A60000C944803FA01DC01AA0FBB1F9B01AC01E7
:100A7000BF5728F4222733274427507820C0B75186
:100A800090F4AB2F0024469537952795011CA3952C
:100A9000D2F3002071F0220F331F441FB395DAF315
:100AA0000ED00C94660561307105A0E88A07B9463E
:100AB00030F49B01AC016627772788279078309621
:100AC00021F0208331834283538308955058BB27FC
:100AD000AA270E947E050C9448030E943A0338F02E
:100AE0000E94410320F039F49F3F19F426F40C943E
:100AF00037030EF4E095E7FB0C943103E92F0E94D5
:100B0000590358F3BA17620773078407950720F053
:100B100079F4A6F50C947B030EF4E0950B2EBA2F16
:100B2000A02D0B01B90190010C01CA01A0011124F3
:100B3000FF27591B99F0593F50F4503E68F11A169F
:100B4000F040A22F232F342F4427585FF3CF469530
:100B500037952795A795F0405395C9F77EF41F1652
:100B6000BA0B620B730B840BBAF09150A1F0FF0F1C
:100B7000BB1F661F771F881FC2F70EC0BA0F621F08
:100B8000731F841F48F4879577956795B795F795F8
:100B90009E3F08F0B0CF9395880F08F09927EE0F8D
:100BA0009795879508959F3F31F0915020F4879550
:100BB00077956795B795880F911D9695879597F9C5
:100BC0000895EE0FFF1F0590F491E02D0994F8941D
:100BD000FFCF470047004100410047004700450064
:100BE00047004700450045004400000000000000A9
:100BF00000000000000000000000000000000000F5
:100C000000000000000000000000000000000000E4
:100C100000000000000000000000000000000000D4
:100C200000000000000000000000000000000000C4
:100C300000000000000000000000000000000000B4
:100C400000000000000000000000000000000000A4
:100C50000000000000000000000000000000000094
:100C60000000000000000000000000000000000084
:100C70000000000000000000000000000000000074
:100C80000000000000000000000000000000000064
:0A0C9000000000000000000000005A
:107E0000112484B714BE81FFF0D085E080938100F7
:107E100082E08093C00088E18093C10086E0809377
:107E2000C20080E18093C4008EE0C9D0259A86E02C
:107E300020E33CEF91E0309385002093840096BBD3
:107E4000B09BFECF1D9AA8958150A9F7CC24DD24C4
:107E500088248394B5E0AB2EA1E19A2EF3E0BF2EE7
:107E6000A2D0813461F49FD0082FAFD0023811F036
:107E7000013811F484E001C083E08DD089C08234E0
:107E800011F484E103C0853419F485E0A6D080C0E4
:107E9000853579F488D0E82EFF2485D0082F10E0AE
:107EA000102F00270E291F29000F111F8ED06801E7
:107EB0006FC0863521F484E090D080E0DECF843638
:107EC00009F040C070D06FD0082F6DD080E0C81688
:107ED00080E7D80618F4F601B7BEE895C0E0D1E017
:107EE00062D089930C17E1F7F0E0CF16F0E7DF06D8
:107EF00018F0F601B7BEE89568D007B600FCFDCFD4
:107F0000A601A0E0B1E02C9130E011968C91119780
:107F100090E0982F8827822B932B1296FA010C0160
:107F200087BEE89511244E5F5F4FF1E0A038BF0790
:107F300051F7F601A7BEE89507B600FCFDCF97BE46
:107F4000E89526C08437B1F42ED02DD0F82E2BD052
:107F50003CD0F601EF2C8F010F5F1F4F84911BD097
:107F6000EA94F801C1F70894C11CD11CFA94CF0C13
:107F7000D11C0EC0853739F428D08EE10CD085E9AC
:107F80000AD08FE07ACF813511F488E018D01DD067
:107F900080E101D065CF982F8091C00085FFFCCF94
:107FA0009093C60008958091C00087FFFCCF809118
:107FB000C00084FD01C0A8958091C6000895E0E648
:107FC000F0E098E1908380830895EDDF803219F02E
:107FD00088E0F5DFFFCF84E1DECF1F93182FE3DFCA
:107FE0001150E9F7F2DF1F91089580E0E8DFEE27F6
:047FF000FF270994CA
:027FFE00040479
:00000001FF
